S00B00004932432E737265635B
S11300000C9434000C9451000C9451000C94510045
S11300100C9451000C9451000C9451000C9439012F
S11300200C9451000C9451000C9451000C94510008
S11300300C9451000C9451000C9451000C945100F8
S11300400C9451000C9451000C9451000C945100E8
S11300500C9451000C9451000C9451000C945100D8
S11300600C945D000C94510011241FBECFEFD8E016
S1130070DEBFCDBF11E0A0E0B1E0E8EBF5E002C0E7
S113008005900D92AA31B107D9F721E0AAE1B1E0B8
S113009001C01D92A932B207E1F70E94AF010C948E
S11300A0DA020C94000094B1906294B9880F8093A2
S11300B0BA0085E48093BC0008951F920F920FB696
S11300C00F9211248F939F93EF93FF938091B90024
S11300D0887F8039D9F040F4803779F08038B1F0E6
S11300E0803609F06FC009C0803BB1F1883B09F448
S11300F04FC0883A09F066C02FC081E080930001A8
S113010080E283B985EC8093BC005FC080910001DC
S1130110882341F08091BB00877080931A0110926C
S1130120000116C0E0911A01F0E08091BB00EF5D80
S1130130FE4F808380911A0190E001968770907839
S1130140992324F40197886F9F6F019680931A0175
S113015085EC8093BC0039C080E283B9E0911A0138
S1130160F0E0EF5DFE4F80818093BB0080911A0127
S113017090E0019687709078992324F40197886F12
S11301809F6F019680931A0185EC8093BC001DC07B
S1130190E0911A01F0E0EF5DFE4F80818093BB0097
S11301A080911A0190E0019687709078992324F445
S11301B00197886F9F6F019680931A0185EC809355
S11301C0BC0003C085EC8093BC00FF91EF919F912C
S11301D08F910F900FBE0F901F90189584B184607B
S11301E084B982E2809380008AE1809381008FE366
S11301F09CE9909387008093860088EB9BE0909322
S11302008B0080938A0008958AB18C6F8AB984B177
S1130210836084B98BB1837C8BB98BB18F738BB9B9
S113022085B18C7F85B982E08093B00097E090938C
S1130230B10097E19093B30080937000089580E635
S113024080937C0087E880937A000895ECE7F0E0DF
S11302509081907F8F70892B8083EAE7F0E0808122
S11302608064808380917A0086FDFCCF8091790040
S113027008951F920F920FB60F9211242F933F935C
S11302804F938F939F93EF93FF9380911F019091CE
S11302902001892B31F180911C018F5F877080933D
S11302A01C01E0911C01F0E0EF5EFE4F90812BB148
S11302B09F70892F90E0880F991F880F991F922FA4
S11302C0937C892B8BB980911F0190912001019718
S11302D09093200180931F01892B19F48BB1837CA7
S11302E08BB980911D0190911E01892B61F1809140
S11302F01B018F5F877080931B01E0911B01F0E06D
S1130300EF5EFE4F80819BB140E4849F90011124F5
S11303109F73292B2BB995B18695869583709C7F05
S1130320892B85B980911D0190911E0101979093AD
S11303301E0180931D01892B31F48BB18F738BB90E
S113034085B18C7F85B9FF91EF919F918F914F91EA
S11303503F912F910F900FBE0F901F90189584B16D
S1130360886084B90E941F010E94EE000E9404016B
S11303700E944D0281E30E9453007894C0E0D0E0D3
S113038081E00E942601E1E2F1E0808382818823FA
S113039021F085B1886085B903C085B1877F85B9AF
S11303A080912501882319F088E29AE002C088EB45
S11303B09BE090938B0080938A00F89440911F01F6
S11303C05091200120911D0130911E01789480915B
S11303D02601882389F0452B79F4E1E2F1E0858157
S11303E090E0982F88279295907FF894909320011D
S11303F080931F017894158280912701882389F0C6
S1130400232B79F4E1E2F1E0868190E0982F8827AC
S11304109295907FF89490931E0180931D01789497
S11304201682F89420911F013091200181E0232B42
S113043009F480E020911D0130911E017894232B52
S113044011F092E001C090E0892B8093280121965D
S1130450C931D105C0F081E091E00E946002C1E29F
S1130460D1E0888190E00E94730287E091E00E94CD
S113047060028F8190E00E9473028EE091E00E94FE
S11304806002C0E0D0E02FEF89EF90E0215080407F
S11304909040E1F700C0000073CF1092C50087E6DA
S11304A08093C40088E18093C10086E08093C200F9
S11304B008959091C00095FFFCCF8093C6000895E5
S11304C00F931F93CF938C01C0E003C00E94590285
S11304D0CF5FF801EC0FF11D80818111F7CFCF912F
S11304E01F910F9108951F93CF93DF9300D000D0F5
S11304F000D0CDB7DEB7AC01892B91F580E30E9423
S113050059023FC09A01ADECBCEC0E94CB02969517
S1130510879596958795969587959C01220F331F0D
S1130520880F991F880F991F880F991F820F931F97
S11305309A01281B390BC901E1E0F0E0EC0FFD1F23
S1130540E10FF11D805D80839A010E94CB02AC0112
S11305505695479556954795569547951F5F01C003
S113056010E04115510571F60AC01150E1E0F0E0C8
S1130570EC0FFD1FE10FF11D80810E945902111142
S1130580F4CF26960FB6F894DEBF0FBECDBFDF9131
S1130590CF911F910895A29FB001B39FC001A39F63
S11305A0700D811D1124911DB29F700D811D1124A8
S10B05B0911D0895F894FFCF9A
S11305B80154656D703A0020427573793A000D0A4A
S10D05C80001030206040C080900F8
S9030000FC
