S00B00004932432E737265635B
S11300000C9434000C9451000C9451000C94510045
S11300100C9451000C9451000C9451000C94510018
S11300200C9451000C9451000C9451000C94510008
S11300300C9451000C9451000C9451000C945100F8
S11300400C9451000C9451000C9451000C945100E8
S11300500C9451000C9451000C9451000C945100D8
S11300600C945D000C94510011241FBECFEFD8E016
S1130070DEBFCDBF11E0A0E0B1E0E2E2F4E002C0F7
S113008005900D92A230B107D9F721E0A2E0B1E0CA
S113009001C01D92AB30B207E1F70E94A1010C949C
S11300A00F020C94000094B1906294B9880F80936D
S11300B0BA0085E48093BC0008951F920F920FB696
S11300C00F9211248F939F93EF93FF938091B90024
S11300D0887F8039D9F040F4803779F08038B1F0E6
S11300E0803609F06FC009C0803BB1F1883B09F448
S11300F04FC0883A09F066C02FC081E080930001A8
S113010080E283B985EC8093BC005FC080910001DC
S1130110882341F08091BB00877080930201109284
S1130120000116C0E0910201F0E08091BB00ED5F98
S1130130FE4F80838091020190E001968770907851
S1130140992324F40197886F9F6F0196809302018D
S113015085EC8093BC0039C080E283B9E091020150
S1130160F0E0ED5FFE4F80818093BB00809102013F
S113017090E0019687709078992324F40197886F12
S11301809F6F01968093020185EC8093BC001DC093
S1130190E0910201F0E0ED5FFE4F80818093BB00AF
S11301A08091020190E0019687709078992324F45D
S11301B00197886F9F6F01968093020185EC80936D
S11301C0BC0003C085EC8093BC00FF91EF919F912C
S11301D08F910F900FBE0F901F9018958BB18F7950
S11301E08BB908958BB180628BB98BB18F7B8BB93E
S11301F008958BB18F7D8BB98BB180648BB90895D1
S11302008AB18B7E8AB98AB188668AB984B18660DC
S113021084B98BB187798BB9089582EA8093800081
S11302208AE1809381008FE39CE990938700809317
S1130230860080ED97E090938900809388009093E6
S11302408B0080938A000895853B08F084EB282F67
S113025030E0A0EDB7E00E94000224EB30E040E083
S113026050E00E94DE012053384F309389002093E0
S113027088000895853B08F084EB282F30E0A0ED3A
S1130280B7E00E94000224EB30E040E050E00E941E
S1130290DE012053384F30938B0020938A00089559
S11302A014BC83E085BD08958BB188608BB925E3C8
S11302B02A95F1F700008BB1877F8BB980E090E03D
S11302C009C0019625E02A95F1F7000081322EE459
S11302D0920788F54C9BF5CF16BC81E085BB60E0A6
S11302E070E009C0A89B04C081E085BB6F5F7F4FAD
S11302F0693C710518F54C99F5CFCB01A0E0B0E04D
S1130300BA2FA92F982F882726B5820F911DA11DDA
S1130310B11DBC01CD01660F771F881F991F660FA1
S1130320771F881F991F2AE330E040E050E00E94C5
S1130330DE01C901089587EE93E0089587EE93E006
S113034008950E9400010E940D010E94500180E363
S11303500E9453007894E3E0F1E08AE5828383838A
S1130360148289B182FB882780F9809303010E945B
S113037054018F3F910508F08FEFC3E0D1E08983EA
S11303808A810E9424018B810E943A018C818130F0
S113039019F0823021F006C00E94F20005C00E94CC
S11303A0F90002C00E94EE002FEF89EF90E0215087
S11303B080409040E1F700C00000D3CFA1E21A2EA4
S11303C0AA1BBB1BFD010DC0AA1FBB1FEE1FFF1FF5
S11303D0A217B307E407F50720F0A21BB30BE40B45
S11303E0F50B661F771F881F991F1A9469F760958C
S11303F07095809590959B01AC01BD01CF01089546
S1130400A29FB001B39FC001A39F700D811D112451
S1130410911DB29F700D811D1124911D0895F894B2
S1050420FFCF08
S10504220100D3
S9030000FC
