:100000000C9460000C947D000C947D000C947D0099
:100010000C947D000C947D000C947D000C947D006C
:100020000C947D000C947D000C947D000C94EB08E6
:100030000C947D000C947D000C941F030C947D00A7
:100040000C947D000C947D000C947D000C947D003C
:100050000C947D000C947D000C947D000C947D002C
:100060000C94C0010C947D00AE03BE03B103BE032B
:10007000B403BE03B703BA03BE03BE03BE03BE038D
:10008000BE03BE03BE03A803AB03BE03BE03BE0391
:10009000BE03BE03BE03BE03BE03BE03BE03BE0358
:1000A000BE03BE03BD03BE03A50386048E04A604DF
:1000B000B404DA04E8042A05380550056A05850504
:1000C00011241FBECFEFD8E0DEBFCDBF11E0A0E00E
:1000D000B1E0E4E5F3E102C005900D92AE3AB1075C
:1000E000D9F721E0AEEAB1E001C01D92AF3BB20703
:1000F000E1F70E9444030C94A8090C94000080E0EE
:1001000090E005C00196813325E7920730F42091F5
:10011000BC002223BCF781E0089580E00895ECEB59
:10012000F0E0108284E0808308950F931F93CF93B3
:100130008B019C01C42F87B18F7C87B9443079F043
:1001400018F4413031F023C0403191F04034C9F00F
:100150001EC0E9EBF0E080818C7F80831EC0E9EB5C
:10016000F0E080818D7F808380818160808315C0F5
:10017000E9EBF0E080818E7F8083808182608083E4
:100180000CC0E9EBF0E080818360808306C0E9EB7E
:10019000F0E080818C7F8083C1E060E074E284EFD6
:1001A00090E0A90198010E945D09CA01B90160515E
:1001B0007109810991094C2F50E09A01220F331FD8
:1001C000032E000C440B550B0E945D092093B800D0
:1001D00084E08093BC00CF911F910F91089584EA31
:1001E0008093BC000E947F00882339F09091B90071
:1001F000987F81E0983009F080E0089584EA809348
:10020000BC000E947F00882339F09091B900987F4C
:1002100081E0903109F080E0089584E98093BC008A
:1002200080E090E02091BC0024FF05C0019680335F
:1002300025E79207B8F308958093BB0084E8809384
:10024000BC000E947F00882319F08091B900887F4C
:100250000895CF93DF93EC01662321F084EC809323
:10026000BC0003C084E88093BC000E947F00882308
:1002700031F08091BB0088838091B900887FDF9145
:10028000CF9108950F931F93CF93DF93D82F062F0D
:10029000142F0E94EF00C82F811103C00E948F000D
:1002A00014C08D2F880F0E941C01887F883121F097
:1002B0000E940D01C0E009C0802F0E941C01812F07
:1002C0000E941C010E940D01C1E08C2FDF91CF9193
:1002D0001F910F910895EF92FF920F931F93CF9369
:1002E000DF93F82EE62E8A01D22F0E94EF00C82F4E
:1002F000811103C00E948F003BC08F2D880F0E9488
:100300001C01887F883121F00E940D01C0E030C0BF
:100310008E2D0E941C010E94FE00C82F811103C077
:100320000E940D0125C08F2D90E0880F991F8160DC
:100330000E941C01887F8034A9F00E940D01C0E05A
:1003400017C08D2F90E001972C2F30E061E0281727
:1003500039070CF060E0C8018C0F911D0E94290143
:10036000CF5F01C0C0E0CD1760F30E940D01C1E076
:100370008C2FDF91CF911F910F91FF90EF900895F7
:100380001F920F920FB60F9211248F939F93EF93AA
:10039000FF938091B900887F8039D9F040F480378D
:1003A00079F08038B1F0803609F06FC009C0803B29
:1003B000B1F1883B09F44FC0883A09F066C02FC0FC
:1003C00081E08093000180E283B985EC8093BC00DA
:1003D0005FC080910001882341F08091BB0087704D
:1003E0008093AE011092000116C0E091AE01F0E0E2
:1003F0008091BB00E954FE4F80838091AE0190E074
:10040000019687709078992324F40197886F9F6FE5
:1004100001968093AE0185EC8093BC0039C080E2E8
:1004200083B9E091AE01F0E0E954FE4F8081809302
:10043000BB008091AE0190E001968770907899237F
:1004400024F40197886F9F6F01968093AE0185EC2D
:100450008093BC001DC0E091AE01F0E0E954FE4F76
:1004600080818093BB008091AE0190E001968770FF
:100470009078992324F40197886F9F6F0196809359
:10048000AE0185EC8093BC0003C085EC8093BC007A
:10049000FF91EF919F918F910F900FBE0F901F9042
:1004A00018952FB7F8946091AF017091B0018091C9
:1004B000B1019091B2012FBF089582E084BD99EF00
:1004C00097BD80936E0083E085BD0895282F30E0AE
:1004D0002E52310945E1429FC001439F900D1124E6
:1004E0006FEE7FEF0E944909CB01489612F480E03D
:1004F00090E08436910514F083E690E0089590FD35
:1005000002C020E001C029E191FD22E392FD2BE42D
:1005100093FD24E6822F0895482F64E081E30E9432
:1005200042010895482F62E080E30E94420108954D
:10053000482F63E080E30E9442010895482F64E061
:1005400080E30E9442010895CF93DF9300D01F9271
:10055000CDB7DEB7982F92959F708F709A3010F4B8
:10056000905D01C0995C99838A3010F4805D01C070
:10057000895C8A831B82CE0101960E949F070F909F
:100580000F900F90DF91CF9108951F93CF93DF933A
:1005900083E091E00E949F07C1E010E01FC00E942D
:1005A000EF00882349F08C2F880F0E941C01D1E0B6
:1005B000883119F0D0E001C0D0E00E940D01DD23A8
:1005C00061F089E191E00E949F078C2F0E94A402B4
:1005D00086E191E00E949F071F5FCF5FCF37F8F25F
:1005E000111104C086E291E00E949F0788E391E028
:1005F0000E949F07DF91CF911F9108950F931F9342
:10060000CF938B0161E0680F81E00E94C708C0E0D2
:1006100003C00E94B108CF5FF801EC0FF11D80818B
:10062000882339F0C031A8F304C080E20E94B108E9
:10063000CF5FC031D0F3CF911F910F9108951F92DA
:100640000F920FB60F9211248F939F93AF93BF9386
:100650008091AF019091B001A091B101B091B20130
:100660000196A11DB11D8093AF019093B001A0939D
:10067000B101B093B201BF91AF919F918F910F9053
:100680000FBE0F901F901895CF93DF93CDB7DEB7B5
:10069000E0970FB6F894DEBF0FBECDBF87B1826082
:1006A00087B987B18B7F87B988B1846088B90E9488
:1006B0008C0741E060EA76E881E090E00E949500D6
:1006C0000E94FB060E9474080E94D3080E945D02EB
:1006D00078940E94C5026AE571E080E00E94FE0203
:1006E00069E671E081E00E94FE02C12CD12C1CA6BB
:1006F0001DA61EA61FA618AAB12C512C1CE001C0D5
:1007000067010E946E077C01C094D094C822D92250
:10071000892B69F088B1826088B9412C18A61FA284
:10072000912C812C1AA619A6A12C00E027C088B113
:100730008D7F88B9F2CFFC01FF27F297E132F105F6
:10074000E8F4EC5CFF4F0C947F09AA24A39416C034
:1007500021E029A713C031E03AA710C08824839470
:100760000DC0992493940AC041E04FA307C051E003
:1007700058A704C04424439401C001E00E94B2077A
:100780009923CCF61EA221E0AE014A5D5F4F60E0E6
:1007900081E30E946B011DA221E0AE014B5D5F4F22
:1007A00067E081E30E946B018EA10E946602782EB1
:1007B00022E0AE014D5D5F4F60E080E30E946B017F
:1007C000882319F03BA02CA003C022242A94312CAA
:1007D000C7010E947F02682E86B184708BA7B1107A
:1007E00004C0E0FC0BC001110CC0BB2071F0AA20BA
:1007F00061F0E0FC0AC0002339F007C0BB24B394C9
:1008000004C0BB24B39401C0B12CBB20F9F080E03C
:100810000E949E0280E00E948C0241E062E081E33F
:100820000E94420166E771E080E00E94FE026EE7EE
:1008300071E081E00E94FE028FEF99EF20E081508D
:1008400090402040E1F700C000005ACF40E062E055
:1008500081E30E944201113011F01C30A9F4E2FC46
:1008600003C039A5332321F081E00E949E020CC011
:10087000E1FC03C04AA5442321F082E00E949E02CD
:1008800003C080E00E949E02C7FC03C0811003C029
:1008900003C012E001C012E0C6FC03C0911003C007
:1008A00003C014E001C014E0C5FC04C05FA15111F5
:1008B00003C003C016E001C016E0C4FC04C088A554
:1008C000811103C003C018E001C018E0C3FC03C0DD
:1008D000411003C003C019E001C019E0151549F02B
:1008E0000E9451026CA77DA78EA79FA7012F18AA6F
:1008F00001C0052D812F90E0FC013197EB30F1050F
:1009000008F0FAC0EB5AFF4F0C947F09151519F047
:1009100080E00E949E023110FAC008C1151519F03E
:100920008AE50E9492020E945102DC01CB012CA5B3
:100930003DA54EA55FA5821B930BA40BB50B8C3B6D
:100940009240A105B10508F0E4C0F0C0151519F0FA
:1009500081E00E949E0243E2421508F4E7C080E075
:100960000E949E0214E0E2C0151569F080E00E942A
:100970009E0243E065E081E30E94420142E066E0BE
:1009800081E30E9442010E945102DC01CB012CA5AF
:100990003DA54EA55FA5821B930BA40BB50B843F11
:1009A0009140A105B10508F4C1C08DA1882309F4C7
:1009B000B2C0BCC0151519F081E00E949E0244E14E
:1009C000421508F4B3C080E00E949E0216E0AEC05B
:1009D000151551F081E00E948C020E9451026CA713
:1009E0007DA78EA79FA718AA58A951111CC00E94C5
:1009F0005102DC01CB012CA53DA54EA55FA5821BB4
:100A0000930BA40BB50B88389341A105B10558F0A1
:100A100080E00E948C020E9451026CA77DA78EA7E5
:100A20009FA741E048AB58A9513009F07FC00E9410
:100A30005102DC01CB012CA53DA54EA55FA5821B73
:100A4000930BA40BB50B80329E44A105B10508F0B1
:100A500064C06CC0151519F081E00E949E0248E048
:100A6000421508F463C080E00E949E0218E05EC058
:100A7000151519F080EA0E9492020E945102DC01D1
:100A8000CB012CA53DA54EA55FA5821B930BA40B06
:100A9000B50B8C3B9240A105B10508F040C046C0A3
:100AA000151531F080E00E9492028AEF0E949802B0
:100AB0000E945102DC01CB012CA53DA54EA55FA5EE
:100AC000821B930BA40BB50B8C3B9240A105B10587
:100AD00040F52CC00E945102DC01CB012CA53DA5A4
:100AE0004EA55FA5821B930BA40BB50B80329F4BC9
:100AF000A240B105C0F41AC0151519F080E00E949B
:100B00009E024BA5442389F011C01CE00FC012E0E7
:100B10000DC013E00BC015E009C017E007C019E0D5
:100B200005C01AE003C01BE001C011E01B3021F03A
:100B30001C3069F40B3059F469E871E080E00E94E0
:100B4000FE026AE571E081E00E94FE0215C11C30E0
:100B5000A9F46AE571E080E00E94FE0269E671E0B6
:100B600081E00E94FE0208C11196E2E1F0E0EC0F84
:100B7000FD1FE80FF11D90838F5F03C0AEE4B1E06D
:100B800080E09C919111F0CF1A30B0F091E0980F75
:100B9000E2E1F0E0EC0FFD1FE80FF11D21E32083FF
:100BA00022E0280FE2E1F0E0EC0FFD1FE90FF11D5C
:100BB00086E2810F80830BC021E0280FE2E1F0E0A4
:100BC000EC0FFD1FE80FF11D80E3810F8083E2E150
:100BD000F0E0EC0FFD1FE20FF11D80E2808381E069
:100BE000820FE2E1F0E0EC0FFD1FE80FF11D84E55C
:100BF000808393E0920F82E0820FE2E1F0E0EC0F5D
:100C0000FD1FE80FF11D8AE3808359E0571588F432
:100C1000E2E1F0E0EC0FFD1FE90FF11D8DEC789E95
:100C2000812D1124869586958695805D808394E03C
:100C3000920F31E0390FE2E1F0E0EC0FFD1FE90F18
:100C4000F11D8DEC789E812D1124869586958695D3
:100C5000880F282F220F220F820F272D281B822F6B
:100C6000805D80839E5FE2E1F0E0EC0FFD1FE30F0B
:100C7000F11D83E48083E2E1F0E0EC0FFD1FE90F5A
:100C8000F11D1082BE016E5E7F4F80E00E94FE0269
:100C9000A4E5B1E080E009C01196E1E0F0E0EC0FDE
:100CA000FD1FE80FF11D90838F5F9C919111F4CF90
:100CB00033E63615F0F491E0980FE1E0F0E0EC0F48
:100CC000FD1FE80FF11D21E3208332E0380FE1E042
:100CD000F0E0EC0FFD1FE90FF11D20E3208393E00E
:100CE000980FE1E0F0E0EC0FFD1FE30FF11D208312
:100CF0002CC049E0461580F4E1E0F0E0EC0FFD1F68
:100D0000E80FF11D9DEC699E912D11249695969505
:100D10009695905D90838F5F91E0980FE1E0F0E011
:100D2000EC0FFD1FE80FF11D8DEC689E812D112445
:100D3000869586958695880F282F220F220F820F81
:100D4000562D581B852F805D808381E0890FE1E05F
:100D5000F0E0EC0FFD1FE90FF11D95E29083E1E05B
:100D6000F0E0EC0FFD1FE80FF11D1082BE016F5F78
:100D70007F4F81E00E94FE0285E991E00E949F077B
:100D8000872D90E00E94BD0789E991E00E949F07AE
:100D9000862D90E00E94BD078DE991E00E949F079B
:100DA000822D90E00E94BD0781EA91E00E949F079A
:100DB000812F90E00E94BD0785EA91E00E949F0785
:100DC0008B2D90E00E94BD0789EA91E00E949F0769
:100DD000832D90E00E94BD0786E191E00E949F076D
:100DE0008FEF99EF20E0815090402040E1F700C064
:100DF0000000502E85CCCF9343E660E88AE50E9440
:100E000042018FE99FE00197F1F700C0000040E048
:100E10006EE58AE50E94420141E06BE28AE50E94AC
:100E2000420141E06CE28AE50E9442014EE06DE23F
:100E30008AE50E94420140E06EE28AE50E9442019A
:100E400041E06FE28AE50E94420145E060E38AE505
:100E50000E94420141E061E38AE50E94420140E0D4
:100E600062E38AE50E94420140E063E38AE50E9472
:100E7000420140E064E38AE50E94420140E065E30C
:100E80008AE50E94420140E06BE58AE50E9442014A
:100E90004FE36CE58AE50E94420140E66DE58AE594
:100EA0000E944201C0E011C06C2F660F6F5B42E0F0
:100EB0008AE50E9442016C2F70E06F5D7F4F660FE4
:100EC00041E08AE50E944201CF5FCC3068F34FE8F1
:100ED0006EE58AE50E944201CF910895CF93DF939A
:100EE00000D0CDB7DEB722E0AE014F5F5F4F60E0CC
:100EF0008AE50E946B01882341F08A8190E0982F57
:100F000088272981822B9F7002C080E090E00F909B
:100F10000F90DF91CF9108951092C50087E68093DE
:100F2000C40088E18093C10086E08093C2000895E8
:100F30009091C00095FFFCCF8093C60008950F9359
:100F40001F93CF938C01C0E003C00E949807CF5F2E
:100F5000F801EC0FF11D80818111F7CFCF911F9126
:100F60000F9108958091C000882324F48091C600D9
:100F700090E008958FEF9FEF08951F93CF93DF9335
:100F800000D000D000D0CDB7DEB7AC01892B91F5F1
:100F900080E30E9498073FC09A01ADECBCEC0E9430
:100FA00085099695879596958795969587959C0141
:100FB000220F331F880F991F880F991F880F991FC1
:100FC000820F931F9A01281B390BC901E1E0F0E061
:100FD000EC0FFD1FE10FF11D805D80839A010E94DF
:100FE0008509AC0156954795569547955695479571
:100FF0001F5F01C010E04115510571F60AC0115084
:10100000E1E0F0E0EC0FFD1FE10FF11D80810E9497
:1010100098071111F4CF26960FB6F894DEBF0FBED5
:10102000CDBFDF91CF911F91089580FF04C09BB188
:1010300090629BB903C09BB19F7D9BB981FF04C0A7
:101040009BB190649BB903C09BB19F7B9BB982FF0E
:1010500004C09BB190689BB903C09BB19F779BB9BB
:1010600083FF04C095B1916095B903C095B19E7F8F
:1010700095B984FF04C095B1926095B903C095B14C
:101080009D7F95B985FF04C095B1946095B903C063
:1010900095B19B7F95B986FF04C095B1986095B9CD
:1010A00003C095B1977F95B9882324F485B18061F9
:1010B00085B9089585B18F7E85B908959BB19B7FD1
:1010C0009BB90E9415088BB180618BB985E08A9528
:1010D000F1F700008BB18F7E8BB98FE891E001971B
:1010E000F1F700C0000008958AB18C6F8AB984B10D
:1010F0008F6184B98BB1837E8BB980E00E94150823
:101100002FEF89EF90E0215080409040E1F700C040
:10111000000080E30E945E088FE19EE40197F1F7F2
:1011200000C0000080E30E945E088FED9BEA0197FB
:10113000F1F700C0000080E30E945E0888E30E948F
:101140005E088CE00E945E0886E00E945E0881E0F6
:101150000E945E088FE39FE10197F1F700C0000055
:1011600008959BB194609BB90E9415088BB1806172
:101170008BB985E08A95F1F700008BB18F7E8BB932
:101180008FE891E00197F1F700C000000895613009
:1011900021F481580E945E080895623019F4815448
:1011A0000E945E08089584B1806284B91092800024
:1011B00082E080938100EFE6F0E0808182608083AE
:1011C000809184009091850088519C4F9093890074
:1011D0008093880008951F920F920FB60F921124EA
:1011E0002F933F938F939F93EF93FF938091B5013C
:1011F000811113C085B1806285B9209101013091C0
:101200000201E8E8F0E080819181820F931F9183D1
:10121000808381E08093B50131C085B18F7D85B930
:10122000209101013091020180E49CE9821B930B23
:10123000E8E8F0E020813181820F931F9183808361
:101240001092B5018091B6018823C1F08091B3015D
:101250009091B40101969093B4018093B3018436C8
:10126000910560F088EB9BE090930201809301016F
:101270001092B6011092B4011092B301FF91EF9158
:101280009F918F913F912F910F900FBE0F901F90C4
:10129000189597FB072E16F4009407D077FD09D018
:1012A0000E94940907FC05D03EF4909581959F4FCC
:1012B0000895709561957F4F0895A1E21A2EAA1B9B
:1012C000BB1BFD010DC0AA1FBB1FEE1FFF1FA217F6
:1012D000B307E407F50720F0A21BB30BE40BF50BF3
:1012E000661F771F881F991F1A9469F7609570957C
:1012F000809590959B01AC01BD01CF010895EE0F43
:10130000FF1F0590F491E02D0994A29FB001B39FB7
:10131000C001A39F700D811D1124911DB29F700DFE
:10132000811D1124911D0895AA1BBB1B51E107C00B
:10133000AA1FBB1FA617B70710F0A61BB70B881F65
:10134000991F5A95A9F780959095BC01CD010895F4
:04135000F894FFCF3F
:1013540001B80B2D2D2D20657363616E656F2049D7
:101364003243202D2D2D0D0A00526573706F6E646B
:10137400653A203078004E61646120726573706F45
:101384006E64696F2E0D0A002D2D2D2D2D2D2D2D02
:101394002D2D2D2D2D2D2D2D2D2D2D0D0A0046619C
:1013A40073652000416775613A0050726573696F17
:1013B4006E65205354415254007061726120696E0D
:1013C4006963696172005041524F20444500454DA4
:1013D400455247454E43494100536F7061206C6943
:1013E400737461210023543A002C413A002C443A8E
:0E13F400002C463A002C453A002C533A0000DB
:00000001FF
